{
  "_format": "hh-sol-artifact-1",
  "contractName": "ParentContract",
  "sourceName": "contracts/ParentContract.sol",
  "abi": [
    {
      "inputs": [
        {
          "internalType": "bytes",
          "name": "_details",
          "type": "bytes"
        }
      ],
      "name": "createPlatform",
      "outputs": [
        {
          "internalType": "address",
          "name": "",
          "type": "address"
        }
      ],
      "stateMutability": "nonpayable",
      "type": "function"
    },
    {
      "inputs": [
        {
          "internalType": "uint256",
          "name": "_id",
          "type": "uint256"
        }
      ],
      "name": "getPlatform",
      "outputs": [
        {
          "components": [
            {
              "internalType": "bytes",
              "name": "details",
              "type": "bytes"
            },
            {
              "internalType": "address",
              "name": "platform",
              "type": "address"
            }
          ],
          "internalType": "struct ParentContract.Platform",
          "name": "",
          "type": "tuple"
        }
      ],
      "stateMutability": "view",
      "type": "function"
    },
    {
      "inputs": [],
      "name": "getPlatforms",
      "outputs": [
        {
          "components": [
            {
              "internalType": "bytes",
              "name": "details",
              "type": "bytes"
            },
            {
              "internalType": "address",
              "name": "platform",
              "type": "address"
            }
          ],
          "internalType": "struct ParentContract.Platform[]",
          "name": "",
          "type": "tuple[]"
        }
      ],
      "stateMutability": "view",
      "type": "function"
    }
  ],
  "bytecode": "0x608060405234801561001057600080fd5b506118b0806100206000396000f3fe608060405234801561001057600080fd5b50600436106100415760003560e01c80631fbe552e146100465780635bd22c9814610064578063c6e79b3014610094575b600080fd5b61004e6100c4565b60405161005b91906106e1565b60405180910390f35b61007e6004803603810190610079919061074d565b61020b565b60405161008b91906107b7565b60405180910390f35b6100ae60048036038101906100a9919061090e565b61032f565b6040516100bb9190610966565b60405180910390f35b60606000805480602002602001604051908101604052809291908181526020016000905b82821015610202578382906000526020600020906002020160405180604001604052908160008201805461011b906109b0565b80601f0160208091040260200160405190810160405280929190818152602001828054610147906109b0565b80156101945780601f1061016957610100808354040283529160200191610194565b820191906000526020600020905b81548152906001019060200180831161017757829003601f168201915b505050505081526020016001820160009054906101000a900473ffffffffffffffffffffffffffffffffffffffff1673ffffffffffffffffffffffffffffffffffffffff1673ffffffffffffffffffffffffffffffffffffffff1681525050815260200190600101906100e8565b50505050905090565b610213610428565b60008281548110610227576102266109e2565b5b9060005260206000209060020201604051806040016040529081600082018054610250906109b0565b80601f016020809104026020016040519081016040528092919081815260200182805461027c906109b0565b80156102c95780601f1061029e576101008083540402835291602001916102c9565b820191906000526020600020905b8154815290600101906020018083116102ac57829003601f168201915b505050505081526020016001820160009054906101000a900473ffffffffffffffffffffffffffffffffffffffff1673ffffffffffffffffffffffffffffffffffffffff1673ffffffffffffffffffffffffffffffffffffffff16815250509050919050565b60008060405161033e90610458565b604051809103906000f08015801561035a573d6000803e3d6000fd5b509050600060405180604001604052808581526020018373ffffffffffffffffffffffffffffffffffffffff168152509050600081908060018154018082558091505060019003906000526020600020906002020160009091909190915060008201518160000190805190602001906103d4929190610465565b5060208201518160010160006101000a81548173ffffffffffffffffffffffffffffffffffffffff021916908373ffffffffffffffffffffffffffffffffffffffff16021790555050508192505050919050565b604051806040016040528060608152602001600073ffffffffffffffffffffffffffffffffffffffff1681525090565b610e6980610a1283390190565b828054610471906109b0565b90600052602060002090601f01602090048101928261049357600085556104da565b82601f106104ac57805160ff19168380011785556104da565b828001600101855582156104da579182015b828111156104d95782518255916020019190600101906104be565b5b5090506104e791906104eb565b5090565b5b808211156105045760008160009055506001016104ec565b5090565b600081519050919050565b600082825260208201905092915050565b6000819050602082019050919050565b600081519050919050565b600082825260208201905092915050565b60005b8381101561056e578082015181840152602081019050610553565b8381111561057d576000848401525b50505050565b6000601f19601f8301169050919050565b600061059f82610534565b6105a9818561053f565b93506105b9818560208601610550565b6105c281610583565b840191505092915050565b600073ffffffffffffffffffffffffffffffffffffffff82169050919050565b60006105f8826105cd565b9050919050565b610608816105ed565b82525050565b6000604083016000830151848203600086015261062b8282610594565b915050602083015161064060208601826105ff565b508091505092915050565b6000610657838361060e565b905092915050565b6000602082019050919050565b600061067782610508565b6106818185610513565b93508360208202850161069385610524565b8060005b858110156106cf57848403895281516106b0858261064b565b94506106bb8361065f565b925060208a01995050600181019050610697565b50829750879550505050505092915050565b600060208201905081810360008301526106fb818461066c565b905092915050565b6000604051905090565b600080fd5b600080fd5b6000819050919050565b61072a81610717565b811461073557600080fd5b50565b60008135905061074781610721565b92915050565b6000602082840312156107635761076261070d565b5b600061077184828501610738565b91505092915050565b600060408301600083015184820360008601526107978282610594565b91505060208301516107ac60208601826105ff565b508091505092915050565b600060208201905081810360008301526107d1818461077a565b905092915050565b600080fd5b600080fd5b7f4e487b7100000000000000000000000000000000000000000000000000000000600052604160045260246000fd5b61081b82610583565b810181811067ffffffffffffffff8211171561083a576108396107e3565b5b80604052505050565b600061084d610703565b90506108598282610812565b919050565b600067ffffffffffffffff821115610879576108786107e3565b5b61088282610583565b9050602081019050919050565b82818337600083830152505050565b60006108b16108ac8461085e565b610843565b9050828152602081018484840111156108cd576108cc6107de565b5b6108d884828561088f565b509392505050565b600082601f8301126108f5576108f46107d9565b5b813561090584826020860161089e565b91505092915050565b6000602082840312156109245761092361070d565b5b600082013567ffffffffffffffff81111561094257610941610712565b5b61094e848285016108e0565b91505092915050565b610960816105ed565b82525050565b600060208201905061097b6000830184610957565b92915050565b7f4e487b7100000000000000000000000000000000000000000000000000000000600052602260045260246000fd5b600060028204905060018216806109c857607f821691505b602082108114156109dc576109db610981565b5b50919050565b7f4e487b7100000000000000000000000000000000000000000000000000000000600052603260045260246000fdfe608060405234801561001057600080fd5b50326000806101000a81548173ffffffffffffffffffffffffffffffffffffffff021916908373ffffffffffffffffffffffffffffffffffffffff160217905550610e09806100606000396000f3fe60806040526004361061007f5760003560e01c80638da5cb5b1161004e5780638da5cb5b1461014a578063a12b212114610175578063d94a862b146101b2578063e63c7e0d146101dd57610086565b8063225d29a11461008b578063244a1985146100c857806349c7e639146101055780636bd872ce1461012157610086565b3661008657005b600080fd5b34801561009757600080fd5b506100b260048036038101906100ad9190610906565b610206565b6040516100bf919061094e565b60405180910390f35b3480156100d457600080fd5b506100ef60048036038101906100ea9190610906565b6102e5565b6040516100fc9190610982565b60405180910390f35b61011f600480360381019061011a91906109d6565b6103bb565b005b34801561012d57600080fd5b5061014860048036038101906101439190610a2f565b61059a565b005b34801561015657600080fd5b5061015f610660565b60405161016c9190610a7e565b60405180910390f35b34801561018157600080fd5b5061019c600480360381019061019791906109d6565b610684565b6040516101a99190610ad7565b60405180910390f35b3480156101be57600080fd5b506101c76106d7565b6040516101d49190610bd0565b60405180910390f35b3480156101e957600080fd5b5061020460048036038101906101ff91906109d6565b61074a565b005b60008060009054906101000a900473ffffffffffffffffffffffffffffffffffffffff1673ffffffffffffffffffffffffffffffffffffffff163373ffffffffffffffffffffffffffffffffffffffff1614610295578173ffffffffffffffffffffffffffffffffffffffff163373ffffffffffffffffffffffffffffffffffffffff161461029457600080fd5b5b42600160008473ffffffffffffffffffffffffffffffffffffffff1673ffffffffffffffffffffffffffffffffffffffff16815260200190815260200160002054106102e057600190505b919050565b60008060009054906101000a900473ffffffffffffffffffffffffffffffffffffffff1673ffffffffffffffffffffffffffffffffffffffff163373ffffffffffffffffffffffffffffffffffffffff1614610374578173ffffffffffffffffffffffffffffffffffffffff163373ffffffffffffffffffffffffffffffffffffffff161461037357600080fd5b5b600160008373ffffffffffffffffffffffffffffffffffffffff1673ffffffffffffffffffffffffffffffffffffffff168152602001908152602001600020549050919050565b60028160ff16815481106103d2576103d1610bf2565b5b90600052602060002090600202016000015434146103ef57600080fd5b6103f833610206565b156104805760028160ff168154811061041457610413610bf2565b5b906000526020600020906002020160010154600160003373ffffffffffffffffffffffffffffffffffffffff1673ffffffffffffffffffffffffffffffffffffffff16815260200190815260200160002060008282546104749190610c50565b925050819055506104f8565b60028160ff168154811061049757610496610bf2565b5b906000526020600020906002020160010154426104b49190610c50565b600160003373ffffffffffffffffffffffffffffffffffffffff1673ffffffffffffffffffffffffffffffffffffffff168152602001908152602001600020819055505b60003073ffffffffffffffffffffffffffffffffffffffff1660028360ff168154811061052857610527610bf2565b5b90600052602060002090600202016000015460405161054690610cd7565b60006040518083038185875af1925050503d8060008114610583576040519150601f19603f3d011682016040523d82523d6000602084013e610588565b606091505b505090508061059657600080fd5b5050565b60008054906101000a900473ffffffffffffffffffffffffffffffffffffffff1673ffffffffffffffffffffffffffffffffffffffff163373ffffffffffffffffffffffffffffffffffffffff16146105f257600080fd5b6000604051806040016040528084815260200162015180846106149190610cec565b8152509050600281908060018154018082558091505060019003906000526020600020906002020160009091909190915060008201518160000155602082015181600101555050505050565b60008054906101000a900473ffffffffffffffffffffffffffffffffffffffff1681565b61068c610889565b60028260ff16815481106106a3576106a2610bf2565b5b9060005260206000209060020201604051806040016040529081600082015481526020016001820154815250509050919050565b60606002805480602002602001604051908101604052809291908181526020016000905b82821015610741578382906000526020600020906002020160405180604001604052908160008201548152602001600182015481525050815260200190600101906106fb565b50505050905090565b60008054906101000a900473ffffffffffffffffffffffffffffffffffffffff1673ffffffffffffffffffffffffffffffffffffffff163373ffffffffffffffffffffffffffffffffffffffff16146107a257600080fd5b60005b6002805490508160ff161015610885578160ff168160ff16141561087257600260016002805490506107d79190610d46565b815481106107e8576107e7610bf2565b5b906000526020600020906002020160028260ff168154811061080d5761080c610bf2565b5b90600052602060002090600202016000820154816000015560018201548160010155905050600280548061084457610843610d7a565b5b6001900381819060005260206000209060020201600080820160009055600182016000905550509055610885565b808061087d90610da9565b9150506107a5565b5050565b604051806040016040528060008152602001600081525090565b600080fd5b600073ffffffffffffffffffffffffffffffffffffffff82169050919050565b60006108d3826108a8565b9050919050565b6108e3816108c8565b81146108ee57600080fd5b50565b600081359050610900816108da565b92915050565b60006020828403121561091c5761091b6108a3565b5b600061092a848285016108f1565b91505092915050565b60008115159050919050565b61094881610933565b82525050565b6000602082019050610963600083018461093f565b92915050565b6000819050919050565b61097c81610969565b82525050565b60006020820190506109976000830184610973565b92915050565b600060ff82169050919050565b6109b38161099d565b81146109be57600080fd5b50565b6000813590506109d0816109aa565b92915050565b6000602082840312156109ec576109eb6108a3565b5b60006109fa848285016109c1565b91505092915050565b610a0c81610969565b8114610a1757600080fd5b50565b600081359050610a2981610a03565b92915050565b60008060408385031215610a4657610a456108a3565b5b6000610a5485828601610a1a565b9250506020610a6585828601610a1a565b9150509250929050565b610a78816108c8565b82525050565b6000602082019050610a936000830184610a6f565b92915050565b610aa281610969565b82525050565b604082016000820151610abe6000850182610a99565b506020820151610ad16020850182610a99565b50505050565b6000604082019050610aec6000830184610aa8565b92915050565b600081519050919050565b600082825260208201905092915050565b6000819050602082019050919050565b604082016000820151610b346000850182610a99565b506020820151610b476020850182610a99565b50505050565b6000610b598383610b1e565b60408301905092915050565b6000602082019050919050565b6000610b7d82610af2565b610b878185610afd565b9350610b9283610b0e565b8060005b83811015610bc3578151610baa8882610b4d565b9750610bb583610b65565b925050600181019050610b96565b5085935050505092915050565b60006020820190508181036000830152610bea8184610b72565b905092915050565b7f4e487b7100000000000000000000000000000000000000000000000000000000600052603260045260246000fd5b7f4e487b7100000000000000000000000000000000000000000000000000000000600052601160045260246000fd5b6000610c5b82610969565b9150610c6683610969565b9250827fffffffffffffffffffffffffffffffffffffffffffffffffffffffffffffffff03821115610c9b57610c9a610c21565b5b828201905092915050565b600081905092915050565b50565b6000610cc1600083610ca6565b9150610ccc82610cb1565b600082019050919050565b6000610ce282610cb4565b9150819050919050565b6000610cf782610969565b9150610d0283610969565b9250817fffffffffffffffffffffffffffffffffffffffffffffffffffffffffffffffff0483118215151615610d3b57610d3a610c21565b5b828202905092915050565b6000610d5182610969565b9150610d5c83610969565b925082821015610d6f57610d6e610c21565b5b828203905092915050565b7f4e487b7100000000000000000000000000000000000000000000000000000000600052603160045260246000fd5b6000610db48261099d565b915060ff821415610dc857610dc7610c21565b5b60018201905091905056fea26469706673582212208ad58dbe979aaf6018237abc6fb09400c3c606fe5e523908aef29cba2826978b64736f6c63430008090033a26469706673582212202757a85744ef5f2c8f1dce168f1bb54fdfb6f49e33d260c495d27a008a86cc9364736f6c63430008090033",
  "linkReferences": {},
  "deployedLinkReferences": {}
}