{
  "_format": "hh-sol-artifact-1",
  "contractName": "PlatformContract",
  "sourceName": "theraine-contracts/contracts/PlatformContract.sol",
  "abi": [
    {
      "inputs": [],
      "stateMutability": "nonpayable",
      "type": "constructor"
    },
    {
      "inputs": [
        {
          "internalType": "uint256",
          "name": "_price",
          "type": "uint256"
        },
        {
          "internalType": "uint256",
          "name": "_duration",
          "type": "uint256"
        }
      ],
      "name": "addPlan",
      "outputs": [],
      "stateMutability": "nonpayable",
      "type": "function"
    },
    {
      "inputs": [
        {
          "internalType": "uint8",
          "name": "_planId",
          "type": "uint8"
        }
      ],
      "name": "getPlan",
      "outputs": [
        {
          "components": [
            {
              "internalType": "uint256",
              "name": "price",
              "type": "uint256"
            },
            {
              "internalType": "uint256",
              "name": "duration",
              "type": "uint256"
            }
          ],
          "internalType": "struct PlatformContract.Plan",
          "name": "",
          "type": "tuple"
        }
      ],
      "stateMutability": "view",
      "type": "function"
    },
    {
      "inputs": [],
      "name": "getPlans",
      "outputs": [
        {
          "components": [
            {
              "internalType": "uint256",
              "name": "price",
              "type": "uint256"
            },
            {
              "internalType": "uint256",
              "name": "duration",
              "type": "uint256"
            }
          ],
          "internalType": "struct PlatformContract.Plan[]",
          "name": "",
          "type": "tuple[]"
        }
      ],
      "stateMutability": "view",
      "type": "function"
    },
    {
      "inputs": [
        {
          "internalType": "address",
          "name": "_user",
          "type": "address"
        }
      ],
      "name": "getUserSubDated",
      "outputs": [
        {
          "internalType": "uint256",
          "name": "",
          "type": "uint256"
        }
      ],
      "stateMutability": "view",
      "type": "function"
    },
    {
      "inputs": [],
      "name": "owner",
      "outputs": [
        {
          "internalType": "address",
          "name": "",
          "type": "address"
        }
      ],
      "stateMutability": "view",
      "type": "function"
    },
    {
      "inputs": [
        {
          "internalType": "uint8",
          "name": "_id",
          "type": "uint8"
        }
      ],
      "name": "removePlan",
      "outputs": [],
      "stateMutability": "nonpayable",
      "type": "function"
    },
    {
      "inputs": [
        {
          "internalType": "uint8",
          "name": "_planId",
          "type": "uint8"
        }
      ],
      "name": "subscribe",
      "outputs": [],
      "stateMutability": "payable",
      "type": "function"
    },
    {
      "inputs": [
        {
          "internalType": "address",
          "name": "_user",
          "type": "address"
        }
      ],
      "name": "userStatus",
      "outputs": [
        {
          "internalType": "bool",
          "name": "status",
          "type": "bool"
        }
      ],
      "stateMutability": "view",
      "type": "function"
    },
    {
      "stateMutability": "payable",
      "type": "receive"
    }
  ],
  "bytecode": "0x608060405234801561001057600080fd5b50326000806101000a81548173ffffffffffffffffffffffffffffffffffffffff021916908373ffffffffffffffffffffffffffffffffffffffff160217905550610e09806100606000396000f3fe60806040526004361061007f5760003560e01c80638da5cb5b1161004e5780638da5cb5b1461014a578063a12b212114610175578063d94a862b146101b2578063e63c7e0d146101dd57610086565b8063225d29a11461008b578063244a1985146100c857806349c7e639146101055780636bd872ce1461012157610086565b3661008657005b600080fd5b34801561009757600080fd5b506100b260048036038101906100ad9190610906565b610206565b6040516100bf919061094e565b60405180910390f35b3480156100d457600080fd5b506100ef60048036038101906100ea9190610906565b6102e5565b6040516100fc9190610982565b60405180910390f35b61011f600480360381019061011a91906109d6565b6103bb565b005b34801561012d57600080fd5b5061014860048036038101906101439190610a2f565b61059a565b005b34801561015657600080fd5b5061015f610660565b60405161016c9190610a7e565b60405180910390f35b34801561018157600080fd5b5061019c600480360381019061019791906109d6565b610684565b6040516101a99190610ad7565b60405180910390f35b3480156101be57600080fd5b506101c76106d7565b6040516101d49190610bd0565b60405180910390f35b3480156101e957600080fd5b5061020460048036038101906101ff91906109d6565b61074a565b005b60008060009054906101000a900473ffffffffffffffffffffffffffffffffffffffff1673ffffffffffffffffffffffffffffffffffffffff163373ffffffffffffffffffffffffffffffffffffffff1614610295578173ffffffffffffffffffffffffffffffffffffffff163373ffffffffffffffffffffffffffffffffffffffff161461029457600080fd5b5b42600160008473ffffffffffffffffffffffffffffffffffffffff1673ffffffffffffffffffffffffffffffffffffffff16815260200190815260200160002054106102e057600190505b919050565b60008060009054906101000a900473ffffffffffffffffffffffffffffffffffffffff1673ffffffffffffffffffffffffffffffffffffffff163373ffffffffffffffffffffffffffffffffffffffff1614610374578173ffffffffffffffffffffffffffffffffffffffff163373ffffffffffffffffffffffffffffffffffffffff161461037357600080fd5b5b600160008373ffffffffffffffffffffffffffffffffffffffff1673ffffffffffffffffffffffffffffffffffffffff168152602001908152602001600020549050919050565b60028160ff16815481106103d2576103d1610bf2565b5b90600052602060002090600202016000015434146103ef57600080fd5b6103f833610206565b156104805760028160ff168154811061041457610413610bf2565b5b906000526020600020906002020160010154600160003373ffffffffffffffffffffffffffffffffffffffff1673ffffffffffffffffffffffffffffffffffffffff16815260200190815260200160002060008282546104749190610c50565b925050819055506104f8565b60028160ff168154811061049757610496610bf2565b5b906000526020600020906002020160010154426104b49190610c50565b600160003373ffffffffffffffffffffffffffffffffffffffff1673ffffffffffffffffffffffffffffffffffffffff168152602001908152602001600020819055505b60003073ffffffffffffffffffffffffffffffffffffffff1660028360ff168154811061052857610527610bf2565b5b90600052602060002090600202016000015460405161054690610cd7565b60006040518083038185875af1925050503d8060008114610583576040519150601f19603f3d011682016040523d82523d6000602084013e610588565b606091505b505090508061059657600080fd5b5050565b60008054906101000a900473ffffffffffffffffffffffffffffffffffffffff1673ffffffffffffffffffffffffffffffffffffffff163373ffffffffffffffffffffffffffffffffffffffff16146105f257600080fd5b6000604051806040016040528084815260200162015180846106149190610cec565b8152509050600281908060018154018082558091505060019003906000526020600020906002020160009091909190915060008201518160000155602082015181600101555050505050565b60008054906101000a900473ffffffffffffffffffffffffffffffffffffffff1681565b61068c610889565b60028260ff16815481106106a3576106a2610bf2565b5b9060005260206000209060020201604051806040016040529081600082015481526020016001820154815250509050919050565b60606002805480602002602001604051908101604052809291908181526020016000905b82821015610741578382906000526020600020906002020160405180604001604052908160008201548152602001600182015481525050815260200190600101906106fb565b50505050905090565b60008054906101000a900473ffffffffffffffffffffffffffffffffffffffff1673ffffffffffffffffffffffffffffffffffffffff163373ffffffffffffffffffffffffffffffffffffffff16146107a257600080fd5b60005b6002805490508160ff161015610885578160ff168160ff16141561087257600260016002805490506107d79190610d46565b815481106107e8576107e7610bf2565b5b906000526020600020906002020160028260ff168154811061080d5761080c610bf2565b5b90600052602060002090600202016000820154816000015560018201548160010155905050600280548061084457610843610d7a565b5b6001900381819060005260206000209060020201600080820160009055600182016000905550509055610885565b808061087d90610da9565b9150506107a5565b5050565b604051806040016040528060008152602001600081525090565b600080fd5b600073ffffffffffffffffffffffffffffffffffffffff82169050919050565b60006108d3826108a8565b9050919050565b6108e3816108c8565b81146108ee57600080fd5b50565b600081359050610900816108da565b92915050565b60006020828403121561091c5761091b6108a3565b5b600061092a848285016108f1565b91505092915050565b60008115159050919050565b61094881610933565b82525050565b6000602082019050610963600083018461093f565b92915050565b6000819050919050565b61097c81610969565b82525050565b60006020820190506109976000830184610973565b92915050565b600060ff82169050919050565b6109b38161099d565b81146109be57600080fd5b50565b6000813590506109d0816109aa565b92915050565b6000602082840312156109ec576109eb6108a3565b5b60006109fa848285016109c1565b91505092915050565b610a0c81610969565b8114610a1757600080fd5b50565b600081359050610a2981610a03565b92915050565b60008060408385031215610a4657610a456108a3565b5b6000610a5485828601610a1a565b9250506020610a6585828601610a1a565b9150509250929050565b610a78816108c8565b82525050565b6000602082019050610a936000830184610a6f565b92915050565b610aa281610969565b82525050565b604082016000820151610abe6000850182610a99565b506020820151610ad16020850182610a99565b50505050565b6000604082019050610aec6000830184610aa8565b92915050565b600081519050919050565b600082825260208201905092915050565b6000819050602082019050919050565b604082016000820151610b346000850182610a99565b506020820151610b476020850182610a99565b50505050565b6000610b598383610b1e565b60408301905092915050565b6000602082019050919050565b6000610b7d82610af2565b610b878185610afd565b9350610b9283610b0e565b8060005b83811015610bc3578151610baa8882610b4d565b9750610bb583610b65565b925050600181019050610b96565b5085935050505092915050565b60006020820190508181036000830152610bea8184610b72565b905092915050565b7f4e487b7100000000000000000000000000000000000000000000000000000000600052603260045260246000fd5b7f4e487b7100000000000000000000000000000000000000000000000000000000600052601160045260246000fd5b6000610c5b82610969565b9150610c6683610969565b9250827fffffffffffffffffffffffffffffffffffffffffffffffffffffffffffffffff03821115610c9b57610c9a610c21565b5b828201905092915050565b600081905092915050565b50565b6000610cc1600083610ca6565b9150610ccc82610cb1565b600082019050919050565b6000610ce282610cb4565b9150819050919050565b6000610cf782610969565b9150610d0283610969565b9250817fffffffffffffffffffffffffffffffffffffffffffffffffffffffffffffffff0483118215151615610d3b57610d3a610c21565b5b828202905092915050565b6000610d5182610969565b9150610d5c83610969565b925082821015610d6f57610d6e610c21565b5b828203905092915050565b7f4e487b7100000000000000000000000000000000000000000000000000000000600052603160045260246000fd5b6000610db48261099d565b915060ff821415610dc857610dc7610c21565b5b60018201905091905056fea26469706673582212208ad58dbe979aaf6018237abc6fb09400c3c606fe5e523908aef29cba2826978b64736f6c63430008090033",
  "linkReferences": {},
  "deployedLinkReferences": {}
}